{
  "_format": "hh-sol-artifact-1",
  "contractName": "SFRouter",
  "sourceName": "contracts/SFRouter.sol",
  "abi": [
    {
      "inputs": [
        {
          "internalType": "contract ISuperfluid",
          "name": "host",
          "type": "address"
        },
        {
          "internalType": "address",
          "name": "_owner",
          "type": "address"
        },
        {
          "internalType": "contract ISemaphore",
          "name": "_semaContract",
          "type": "address"
        }
      ],
      "stateMutability": "nonpayable",
      "type": "constructor"
    },
    {
      "inputs": [
        {
          "internalType": "address",
          "name": "_account",
          "type": "address"
        }
      ],
      "name": "addAccount",
      "outputs": [],
      "stateMutability": "nonpayable",
      "type": "function"
    },
    {
      "inputs": [
        {
          "internalType": "address[]",
          "name": "_accounts",
          "type": "address[]"
        }
      ],
      "name": "addAccounts",
      "outputs": [],
      "stateMutability": "nonpayable",
      "type": "function"
    },
    {
      "inputs": [],
      "name": "cfaV1",
      "outputs": [
        {
          "internalType": "contract ISuperfluid",
          "name": "host",
          "type": "address"
        },
        {
          "internalType": "contract IConstantFlowAgreementV1",
          "name": "cfa",
          "type": "address"
        }
      ],
      "stateMutability": "view",
      "type": "function"
    },
    {
      "inputs": [
        {
          "internalType": "uint256",
          "name": "roomId",
          "type": "uint256"
        }
      ],
      "name": "closeRoom",
      "outputs": [],
      "stateMutability": "nonpayable",
      "type": "function"
    },
    {
      "inputs": [],
      "name": "createRoom",
      "outputs": [
        {
          "internalType": "uint256",
          "name": "",
          "type": "uint256"
        }
      ],
      "stateMutability": "nonpayable",
      "type": "function"
    },
    {
      "inputs": [
        {
          "internalType": "address",
          "name": "",
          "type": "address"
        }
      ],
      "name": "daoMembers",
      "outputs": [
        {
          "internalType": "bool",
          "name": "",
          "type": "bool"
        }
      ],
      "stateMutability": "view",
      "type": "function"
    },
    {
      "inputs": [
        {
          "internalType": "contract ISuperfluidToken",
          "name": "token",
          "type": "address"
        },
        {
          "internalType": "address",
          "name": "receiver",
          "type": "address"
        }
      ],
      "name": "deleteFlowFromContract",
      "outputs": [],
      "stateMutability": "nonpayable",
      "type": "function"
    },
    {
      "inputs": [],
      "name": "owner",
      "outputs": [
        {
          "internalType": "address",
          "name": "",
          "type": "address"
        }
      ],
      "stateMutability": "view",
      "type": "function"
    },
    {
      "inputs": [
        {
          "internalType": "address",
          "name": "_account",
          "type": "address"
        }
      ],
      "name": "removeAccount",
      "outputs": [],
      "stateMutability": "nonpayable",
      "type": "function"
    },
    {
      "inputs": [],
      "name": "roomNumber",
      "outputs": [
        {
          "internalType": "uint256",
          "name": "",
          "type": "uint256"
        }
      ],
      "stateMutability": "view",
      "type": "function"
    },
    {
      "inputs": [
        {
          "internalType": "uint256",
          "name": "",
          "type": "uint256"
        }
      ],
      "name": "roomStatus",
      "outputs": [
        {
          "internalType": "bool",
          "name": "",
          "type": "bool"
        }
      ],
      "stateMutability": "view",
      "type": "function"
    },
    {
      "inputs": [],
      "name": "semaContract",
      "outputs": [
        {
          "internalType": "contract ISemaphore",
          "name": "",
          "type": "address"
        }
      ],
      "stateMutability": "view",
      "type": "function"
    },
    {
      "inputs": [
        {
          "internalType": "contract ISuperToken",
          "name": "token",
          "type": "address"
        },
        {
          "internalType": "uint256",
          "name": "amount",
          "type": "uint256"
        }
      ],
      "name": "sendLumpSumToContract",
      "outputs": [],
      "stateMutability": "nonpayable",
      "type": "function"
    },
    {
      "inputs": [
        {
          "internalType": "uint256",
          "name": "groupdId",
          "type": "uint256"
        },
        {
          "internalType": "bytes32",
          "name": "signal",
          "type": "bytes32"
        },
        {
          "internalType": "uint256",
          "name": "nullifierHash",
          "type": "uint256"
        },
        {
          "internalType": "uint256",
          "name": "externalNullifier",
          "type": "uint256"
        },
        {
          "internalType": "uint256[8]",
          "name": "proof",
          "type": "uint256[8]"
        },
        {
          "internalType": "uint256",
          "name": "roomId",
          "type": "uint256"
        },
        {
          "internalType": "contract ISuperfluidToken",
          "name": "token",
          "type": "address"
        }
      ],
      "name": "sendTransaction",
      "outputs": [],
      "stateMutability": "nonpayable",
      "type": "function"
    },
    {
      "inputs": [
        {
          "internalType": "contract ISuperToken",
          "name": "token",
          "type": "address"
        },
        {
          "internalType": "uint256",
          "name": "amount",
          "type": "uint256"
        }
      ],
      "name": "withdrawFunds",
      "outputs": [],
      "stateMutability": "nonpayable",
      "type": "function"
    }
  ],
  "bytecode": "0x608060405260006001553480156200001657600080fd5b50604051620023803803806200238083398181016040528101906200003c91906200048b565b600073ffffffffffffffffffffffffffffffffffffffff168373ffffffffffffffffffffffffffffffffffffffff16036200007c576200007b620004e7565b5b816000806101000a81548173ffffffffffffffffffffffffffffffffffffffff021916908373ffffffffffffffffffffffffffffffffffffffff16021790555080600260006101000a81548173ffffffffffffffffffffffffffffffffffffffff021916908373ffffffffffffffffffffffffffffffffffffffff1602179055506200014d6040518060600160405280602481526020016200235c6024913960008054906101000a900473ffffffffffffffffffffffffffffffffffffffff16620002c860201b62000b0a1760201c565b60405180604001604052808473ffffffffffffffffffffffffffffffffffffffff1681526020018473ffffffffffffffffffffffffffffffffffffffff1663b6d200de7fa9214cc96615e0085d3bb077758db69497dc2dce3b2b1e97bc93c3d18d83efd36040518263ffffffff1660e01b8152600401620001cf919062000531565b602060405180830381865afa158015620001ed573d6000803e3d6000fd5b505050506040513d601f19601f8201168201806040525081019062000213919062000593565b73ffffffffffffffffffffffffffffffffffffffff16815250600360008201518160000160006101000a81548173ffffffffffffffffffffffffffffffffffffffff021916908373ffffffffffffffffffffffffffffffffffffffff16021790555060208201518160010160006101000a81548173ffffffffffffffffffffffffffffffffffffffff021916908373ffffffffffffffffffffffffffffffffffffffff160217905550905050505050620006ae565b6200036a8282604051602401620002e19291906200067a565b6040516020818303038152906040527f319af333000000000000000000000000000000000000000000000000000000007bffffffffffffffffffffffffffffffffffffffffffffffffffffffff19166020820180517bffffffffffffffffffffffffffffffffffffffffffffffffffffffff83818316178352505050506200036e60201b60201c565b5050565b60008151905060006a636f6e736f6c652e6c6f679050602083016000808483855afa5050505050565b600080fd5b600073ffffffffffffffffffffffffffffffffffffffff82169050919050565b6000620003c9826200039c565b9050919050565b6000620003dd82620003bc565b9050919050565b620003ef81620003d0565b8114620003fb57600080fd5b50565b6000815190506200040f81620003e4565b92915050565b6200042081620003bc565b81146200042c57600080fd5b50565b600081519050620004408162000415565b92915050565b60006200045382620003bc565b9050919050565b620004658162000446565b81146200047157600080fd5b50565b60008151905062000485816200045a565b92915050565b600080600060608486031215620004a757620004a662000397565b5b6000620004b786828701620003fe565b9350506020620004ca868287016200042f565b9250506040620004dd8682870162000474565b9150509250925092565b7f4e487b7100000000000000000000000000000000000000000000000000000000600052600160045260246000fd5b6000819050919050565b6200052b8162000516565b82525050565b600060208201905062000548600083018462000520565b92915050565b60006200055b82620003bc565b9050919050565b6200056d816200054e565b81146200057957600080fd5b50565b6000815190506200058d8162000562565b92915050565b600060208284031215620005ac57620005ab62000397565b5b6000620005bc848285016200057c565b91505092915050565b600081519050919050565b600082825260208201905092915050565b60005b8381101562000601578082015181840152602081019050620005e4565b8381111562000611576000848401525b50505050565b6000601f19601f8301169050919050565b60006200063582620005c5565b620006418185620005d0565b935062000653818560208601620005e1565b6200065e8162000617565b840191505092915050565b6200067481620003bc565b82525050565b6000604082019050818103600083015262000696818562000628565b9050620006a7602083018462000669565b9392505050565b611c9e80620006be6000396000f3fe608060405234801561001057600080fd5b50600436106100f55760003560e01c8063ac71abde11610097578063d23b96a111610066578063d23b96a114610248578063d3112b2e14610266578063db93ea6914610285578063e89b0e1e146102b5576100f5565b8063ac71abde146101d8578063c1075329146101f4578063c2f7c65414610210578063c4740a951461022c576100f5565b806368ace074116100d357806368ace074146101505780638a8deed71461016c5780638da5cb5b1461018a578063959068ea146101a8576100f5565b80631c3a8892146100fa57806326ff92e4146101165780633be272aa14610132575b600080fd5b610114600480360381019061010f919061106a565b6102d1565b005b610130600480360381019061012b9190611107565b610300565b005b61013a61046e565b6040516101479190611156565b60405180910390f35b61016a6004803603810190610165919061120c565b6104be565b005b6101746105ab565b6040516101819190611310565b60405180910390f35b6101926105d1565b60405161019f919061133a565b60405180910390f35b6101c260048036038101906101bd9190611381565b6105f5565b6040516101cf91906113c9565b60405180910390f35b6101f260048036038101906101ed9190611538565b610615565b005b61020e60048036038101906102099190611107565b610738565b005b61022a60048036038101906102259190611581565b6108a4565b005b61024660048036038101906102419190611381565b6108c0565b005b6102506109a9565b60405161025d9190611156565b60405180910390f35b61026e6109af565b60405161027c929190611603565b60405180910390f35b61029f600480360381019061029a919061106a565b610a01565b6040516102ac91906113c9565b60405180910390f35b6102cf60048036038101906102ca9190611381565b610a21565b005b60006005600083815260200190815260200160002060006101000a81548160ff02191690831515021790555050565b60008054906101000a900473ffffffffffffffffffffffffffffffffffffffff1673ffffffffffffffffffffffffffffffffffffffff163373ffffffffffffffffffffffffffffffffffffffff1614806103aa575060011515600660003373ffffffffffffffffffffffffffffffffffffffff1673ffffffffffffffffffffffffffffffffffffffff16815260200190815260200160002060009054906101000a900460ff161515145b6103e9576040517f08c379a00000000000000000000000000000000000000000000000000000000081526004016103e090611689565b60405180910390fd5b8173ffffffffffffffffffffffffffffffffffffffff166323b872dd3330846040518463ffffffff1660e01b8152600401610426939291906116a9565b6020604051808303816000875af1158015610445573d6000803e3d6000fd5b505050506040513d601f19601f82011682018060405250810190610469919061170c565b505050565b60006001600081548092919061048390611768565b9190505550600160056000600154815260200190815260200160002060006101000a81548160ff021916908315150217905550600154905090565b600260009054906101000a900473ffffffffffffffffffffffffffffffffffffffff1673ffffffffffffffffffffffffffffffffffffffff16636673e84988888888886040518663ffffffff1660e01b81526004016105219594939291906117df565b600060405180830381600087803b15801561053b57600080fd5b505af115801561054f573d6000803e3d6000fd5b50505050600115156005600084815260200190815260200160002060009054906101000a900460ff1615151461058457600080fd5b81841461059057600080fd5b6105a28133660db4da5f435944610ba6565b50505050505050565b600260009054906101000a900473ffffffffffffffffffffffffffffffffffffffff1681565b60008054906101000a900473ffffffffffffffffffffffffffffffffffffffff1681565b60066020528060005260406000206000915054906101000a900460ff1681565b60008054906101000a900473ffffffffffffffffffffffffffffffffffffffff1673ffffffffffffffffffffffffffffffffffffffff163373ffffffffffffffffffffffffffffffffffffffff16146106a3576040517f08c379a000000000000000000000000000000000000000000000000000000000815260040161069a9061187f565b60405180910390fd5b60005b8151811015610734576001600660008484815181106106c8576106c761189f565b5b602002602001015173ffffffffffffffffffffffffffffffffffffffff1673ffffffffffffffffffffffffffffffffffffffff16815260200190815260200160002060006101000a81548160ff021916908315150217905550808061072c90611768565b9150506106a6565b5050565b60008054906101000a900473ffffffffffffffffffffffffffffffffffffffff1673ffffffffffffffffffffffffffffffffffffffff163373ffffffffffffffffffffffffffffffffffffffff1614806107e2575060011515600660003373ffffffffffffffffffffffffffffffffffffffff1673ffffffffffffffffffffffffffffffffffffffff16815260200190815260200160002060009054906101000a900460ff161515145b610821576040517f08c379a000000000000000000000000000000000000000000000000000000000815260040161081890611689565b60405180910390fd5b8173ffffffffffffffffffffffffffffffffffffffff1663a9059cbb33836040518363ffffffff1660e01b815260040161085c9291906118ce565b6020604051808303816000875af115801561087b573d6000803e3d6000fd5b505050506040513d601f19601f8201168201806040525081019061089f919061170c565b505050565b6108bc3082846003610bc3909392919063ffffffff16565b5050565b60008054906101000a900473ffffffffffffffffffffffffffffffffffffffff1673ffffffffffffffffffffffffffffffffffffffff163373ffffffffffffffffffffffffffffffffffffffff161461094e576040517f08c379a000000000000000000000000000000000000000000000000000000000815260040161094590611943565b60405180910390fd5b6000600660008373ffffffffffffffffffffffffffffffffffffffff1673ffffffffffffffffffffffffffffffffffffffff16815260200190815260200160002060006101000a81548160ff02191690831515021790555050565b60015481565b60038060000160009054906101000a900473ffffffffffffffffffffffffffffffffffffffff16908060010160009054906101000a900473ffffffffffffffffffffffffffffffffffffffff16905082565b60056020528060005260406000206000915054906101000a900460ff1681565b60008054906101000a900473ffffffffffffffffffffffffffffffffffffffff1673ffffffffffffffffffffffffffffffffffffffff163373ffffffffffffffffffffffffffffffffffffffff1614610aaf576040517f08c379a0000000000000000000000000000000000000000000000000000000008152600401610aa69061187f565b60405180910390fd5b6001600660008373ffffffffffffffffffffffffffffffffffffffff1673ffffffffffffffffffffffffffffffffffffffff16815260200190815260200160002060006101000a81548160ff02191690831515021790555050565b610ba28282604051602401610b209291906119da565b6040516020818303038152906040527f319af333000000000000000000000000000000000000000000000000000000007bffffffffffffffffffffffffffffffffffffffffffffffffffffffff19166020820180517bffffffffffffffffffffffffffffffffffffffffffffffffffffffff8381831617835250505050610c23565b5050565b610bbe8284836003610c4c909392919063ffffffff16565b505050565b610c1d84848484600067ffffffffffffffff811115610be557610be46113fa565b5b6040519080825280601f01601f191660200182016040528015610c175781602001600182028036833780820191505090505b50610cac565b50505050565b60008151905060006a636f6e736f6c652e6c6f679050602083016000808483855afa5050505050565b610ca684848484600067ffffffffffffffff811115610c6e57610c6d6113fa565b5b6040519080825280601f01601f191660200182016040528015610ca05781602001600182028036833780820191505090505b50610e66565b50505050565b8460000160009054906101000a900473ffffffffffffffffffffffffffffffffffffffff1673ffffffffffffffffffffffffffffffffffffffff166339255d5b8660010160009054906101000a900473ffffffffffffffffffffffffffffffffffffffff168760010160009054906101000a900473ffffffffffffffffffffffffffffffffffffffff1673ffffffffffffffffffffffffffffffffffffffff1663b4b333c6868989600067ffffffffffffffff811115610d6f57610d6e6113fa565b5b6040519080825280601f01601f191660200182016040528015610da15781602001600182028036833780820191505090505b50604051602401610db59493929190611a80565b604051602081830303815290604052915060e01b6020820180517bffffffffffffffffffffffffffffffffffffffffffffffffffffffff8381831617835250505050846040518463ffffffff1660e01b8152600401610e1693929190611acc565b6000604051808303816000875af1158015610e35573d6000803e3d6000fd5b505050506040513d6000823e3d601f19601f82011682018060405250810190610e5e9190611bb7565b505050505050565b8460000160009054906101000a900473ffffffffffffffffffffffffffffffffffffffff1673ffffffffffffffffffffffffffffffffffffffff166339255d5b8660010160009054906101000a900473ffffffffffffffffffffffffffffffffffffffff168760010160009054906101000a900473ffffffffffffffffffffffffffffffffffffffff1673ffffffffffffffffffffffffffffffffffffffff166362fc305e878988600067ffffffffffffffff811115610f2957610f286113fa565b5b6040519080825280601f01601f191660200182016040528015610f5b5781602001600182028036833780820191505090505b50604051602401610f6f9493929190611c1c565b604051602081830303815290604052915060e01b6020820180517bffffffffffffffffffffffffffffffffffffffffffffffffffffffff8381831617835250505050846040518463ffffffff1660e01b8152600401610fd093929190611acc565b6000604051808303816000875af1158015610fef573d6000803e3d6000fd5b505050506040513d6000823e3d601f19601f820116820180604052508101906110189190611bb7565b505050505050565b6000604051905090565b600080fd5b600080fd5b6000819050919050565b61104781611034565b811461105257600080fd5b50565b6000813590506110648161103e565b92915050565b6000602082840312156110805761107f61102a565b5b600061108e84828501611055565b91505092915050565b600073ffffffffffffffffffffffffffffffffffffffff82169050919050565b60006110c282611097565b9050919050565b60006110d4826110b7565b9050919050565b6110e4816110c9565b81146110ef57600080fd5b50565b600081359050611101816110db565b92915050565b6000806040838503121561111e5761111d61102a565b5b600061112c858286016110f2565b925050602061113d85828601611055565b9150509250929050565b61115081611034565b82525050565b600060208201905061116b6000830184611147565b92915050565b6000819050919050565b61118481611171565b811461118f57600080fd5b50565b6000813590506111a18161117b565b92915050565b600080fd5b6000819050826020600802820111156111c8576111c76111a7565b5b92915050565b60006111d9826110b7565b9050919050565b6111e9816111ce565b81146111f457600080fd5b50565b600081359050611206816111e0565b92915050565b60008060008060008060006101c0888a03121561122c5761122b61102a565b5b600061123a8a828b01611055565b975050602061124b8a828b01611192565b965050604061125c8a828b01611055565b955050606061126d8a828b01611055565b945050608061127e8a828b016111ac565b9350506101806112908a828b01611055565b9250506101a06112a28a828b016111f7565b91505092959891949750929550565b6000819050919050565b60006112d66112d16112cc84611097565b6112b1565b611097565b9050919050565b60006112e8826112bb565b9050919050565b60006112fa826112dd565b9050919050565b61130a816112ef565b82525050565b60006020820190506113256000830184611301565b92915050565b611334816110b7565b82525050565b600060208201905061134f600083018461132b565b92915050565b61135e816110b7565b811461136957600080fd5b50565b60008135905061137b81611355565b92915050565b6000602082840312156113975761139661102a565b5b60006113a58482850161136c565b91505092915050565b60008115159050919050565b6113c3816113ae565b82525050565b60006020820190506113de60008301846113ba565b92915050565b600080fd5b6000601f19601f8301169050919050565b7f4e487b7100000000000000000000000000000000000000000000000000000000600052604160045260246000fd5b611432826113e9565b810181811067ffffffffffffffff82111715611451576114506113fa565b5b80604052505050565b6000611464611020565b90506114708282611429565b919050565b600067ffffffffffffffff8211156114905761148f6113fa565b5b602082029050602081019050919050565b60006114b46114af84611475565b61145a565b905080838252602082019050602084028301858111156114d7576114d66111a7565b5b835b8181101561150057806114ec888261136c565b8452602084019350506020810190506114d9565b5050509392505050565b600082601f83011261151f5761151e6113e4565b5b813561152f8482602086016114a1565b91505092915050565b60006020828403121561154e5761154d61102a565b5b600082013567ffffffffffffffff81111561156c5761156b61102f565b5b6115788482850161150a565b91505092915050565b600080604083850312156115985761159761102a565b5b60006115a6858286016111f7565b92505060206115b78582860161136c565b9150509250929050565b60006115cc826112dd565b9050919050565b6115dc816115c1565b82525050565b60006115ed826112dd565b9050919050565b6115fd816115e2565b82525050565b600060408201905061161860008301856115d3565b61162560208301846115f4565b9392505050565b600082825260208201905092915050565b7f6d75737420626520617574686f72697a65640000000000000000000000000000600082015250565b600061167360128361162c565b915061167e8261163d565b602082019050919050565b600060208201905081810360008301526116a281611666565b9050919050565b60006060820190506116be600083018661132b565b6116cb602083018561132b565b6116d86040830184611147565b949350505050565b6116e9816113ae565b81146116f457600080fd5b50565b600081519050611706816116e0565b92915050565b6000602082840312156117225761172161102a565b5b6000611730848285016116f7565b91505092915050565b7f4e487b7100000000000000000000000000000000000000000000000000000000600052601160045260246000fd5b600061177382611034565b91507fffffffffffffffffffffffffffffffffffffffffffffffffffffffffffffffff82036117a5576117a4611739565b5b600182019050919050565b6117b981611171565b82525050565b82818337600083830152505050565b6117db61010083836117bf565b5050565b6000610180820190506117f56000830188611147565b61180260208301876117b0565b61180f6040830186611147565b61181c6060830185611147565b61182960808301846117ce565b9695505050505050565b7f6f6e6c79206f776e65722063616e20616464206163636f756e74730000000000600082015250565b6000611869601b8361162c565b915061187482611833565b602082019050919050565b600060208201905081810360008301526118988161185c565b9050919050565b7f4e487b7100000000000000000000000000000000000000000000000000000000600052603260045260246000fd5b60006040820190506118e3600083018561132b565b6118f06020830184611147565b9392505050565b7f6f6e6c79206f776e65722063616e2072656d6f7665206163636f756e74730000600082015250565b600061192d601e8361162c565b9150611938826118f7565b602082019050919050565b6000602082019050818103600083015261195c81611920565b9050919050565b600081519050919050565b60005b8381101561198c578082015181840152602081019050611971565b8381111561199b576000848401525b50505050565b60006119ac82611963565b6119b6818561162c565b93506119c681856020860161196e565b6119cf816113e9565b840191505092915050565b600060408201905081810360008301526119f481856119a1565b9050611a03602083018461132b565b9392505050565b6000611a15826112dd565b9050919050565b611a2581611a0a565b82525050565b600081519050919050565b600082825260208201905092915050565b6000611a5282611a2b565b611a5c8185611a36565b9350611a6c81856020860161196e565b611a75816113e9565b840191505092915050565b6000608082019050611a956000830187611a1c565b611aa2602083018661132b565b611aaf604083018561132b565b8181036060830152611ac18184611a47565b905095945050505050565b6000606082019050611ae160008301866115f4565b8181036020830152611af38185611a47565b90508181036040830152611b078184611a47565b9050949350505050565b600080fd5b600067ffffffffffffffff821115611b3157611b306113fa565b5b611b3a826113e9565b9050602081019050919050565b6000611b5a611b5584611b16565b61145a565b905082815260208101848484011115611b7657611b75611b11565b5b611b8184828561196e565b509392505050565b600082601f830112611b9e57611b9d6113e4565b5b8151611bae848260208601611b47565b91505092915050565b600060208284031215611bcd57611bcc61102a565b5b600082015167ffffffffffffffff811115611beb57611bea61102f565b5b611bf784828501611b89565b91505092915050565b600081600b0b9050919050565b611c1681611c00565b82525050565b6000608082019050611c316000830187611a1c565b611c3e602083018661132b565b611c4b6040830185611c0d565b8181036060830152611c5d8184611a47565b90509594505050505056fea264697066735822122049a63c8f59a57ed0ff87c8d9977f2cffd7617fc7b24ed629914c308ea10b35da64736f6c634300080d00334465706c6f79696e672061204d6f6e657920526f757465722077697468206f776e65723a",
  "linkReferences": {},
  "deployedLinkReferences": {}
}