{
  "_format": "hh-sol-artifact-1",
  "contractName": "SFRouter",
  "sourceName": "contracts/SFRouter.sol",
  "abi": [
    {
      "inputs": [
        {
          "internalType": "contract ISuperfluid",
          "name": "host",
          "type": "address"
        },
        {
          "internalType": "address",
          "name": "_owner",
          "type": "address"
        },
        {
          "internalType": "contract ISemaphore",
          "name": "_semaContract",
          "type": "address"
        }
      ],
      "stateMutability": "nonpayable",
      "type": "constructor"
    },
    {
      "inputs": [
        {
          "internalType": "address",
          "name": "_account",
          "type": "address"
        }
      ],
      "name": "addAccount",
      "outputs": [],
      "stateMutability": "nonpayable",
      "type": "function"
    },
    {
      "inputs": [
        {
          "internalType": "address[]",
          "name": "_accounts",
          "type": "address[]"
        }
      ],
      "name": "addAccounts",
      "outputs": [],
      "stateMutability": "nonpayable",
      "type": "function"
    },
    {
      "inputs": [],
      "name": "cfaV1",
      "outputs": [
        {
          "internalType": "contract ISuperfluid",
          "name": "host",
          "type": "address"
        },
        {
          "internalType": "contract IConstantFlowAgreementV1",
          "name": "cfa",
          "type": "address"
        }
      ],
      "stateMutability": "view",
      "type": "function"
    },
    {
      "inputs": [
        {
          "internalType": "uint256",
          "name": "roomId",
          "type": "uint256"
        }
      ],
      "name": "closeRoom",
      "outputs": [],
      "stateMutability": "nonpayable",
      "type": "function"
    },
    {
      "inputs": [],
      "name": "createRoom",
      "outputs": [
        {
          "internalType": "uint256",
          "name": "",
          "type": "uint256"
        }
      ],
      "stateMutability": "nonpayable",
      "type": "function"
    },
    {
      "inputs": [
        {
          "internalType": "address",
          "name": "",
          "type": "address"
        }
      ],
      "name": "daoMembers",
      "outputs": [
        {
          "internalType": "bool",
          "name": "",
          "type": "bool"
        }
      ],
      "stateMutability": "view",
      "type": "function"
    },
    {
      "inputs": [
        {
          "internalType": "contract ISuperfluidToken",
          "name": "token",
          "type": "address"
        },
        {
          "internalType": "address",
          "name": "receiver",
          "type": "address"
        }
      ],
      "name": "deleteFlowFromContract",
      "outputs": [],
      "stateMutability": "nonpayable",
      "type": "function"
    },
    {
      "inputs": [],
      "name": "owner",
      "outputs": [
        {
          "internalType": "address",
          "name": "",
          "type": "address"
        }
      ],
      "stateMutability": "view",
      "type": "function"
    },
    {
      "inputs": [
        {
          "internalType": "address",
          "name": "_account",
          "type": "address"
        }
      ],
      "name": "removeAccount",
      "outputs": [],
      "stateMutability": "nonpayable",
      "type": "function"
    },
    {
      "inputs": [],
      "name": "roomNumber",
      "outputs": [
        {
          "internalType": "uint256",
          "name": "",
          "type": "uint256"
        }
      ],
      "stateMutability": "view",
      "type": "function"
    },
    {
      "inputs": [
        {
          "internalType": "uint256",
          "name": "",
          "type": "uint256"
        }
      ],
      "name": "roomStatus",
      "outputs": [
        {
          "internalType": "bool",
          "name": "",
          "type": "bool"
        }
      ],
      "stateMutability": "view",
      "type": "function"
    },
    {
      "inputs": [],
      "name": "semaContract",
      "outputs": [
        {
          "internalType": "contract ISemaphore",
          "name": "",
          "type": "address"
        }
      ],
      "stateMutability": "view",
      "type": "function"
    },
    {
      "inputs": [
        {
          "internalType": "contract ISuperToken",
          "name": "token",
          "type": "address"
        },
        {
          "internalType": "uint256",
          "name": "amount",
          "type": "uint256"
        }
      ],
      "name": "sendLumpSumToContract",
      "outputs": [],
      "stateMutability": "nonpayable",
      "type": "function"
    },
    {
      "inputs": [
        {
          "internalType": "uint256",
          "name": "groupdId",
          "type": "uint256"
        },
        {
          "internalType": "bytes32",
          "name": "signal",
          "type": "bytes32"
        },
        {
          "internalType": "uint256",
          "name": "nullifierHash",
          "type": "uint256"
        },
        {
          "internalType": "uint256",
          "name": "externalNullifier",
          "type": "uint256"
        },
        {
          "internalType": "uint256[8]",
          "name": "proof",
          "type": "uint256[8]"
        },
        {
          "internalType": "uint256",
          "name": "roomId",
          "type": "uint256"
        },
        {
          "internalType": "contract ISuperfluidToken",
          "name": "token",
          "type": "address"
        },
        {
          "internalType": "address",
          "name": "receiver",
          "type": "address"
        }
      ],
      "name": "sendTransaction",
      "outputs": [],
      "stateMutability": "nonpayable",
      "type": "function"
    },
    {
      "inputs": [
        {
          "internalType": "contract ISuperToken",
          "name": "token",
          "type": "address"
        },
        {
          "internalType": "uint256",
          "name": "amount",
          "type": "uint256"
        }
      ],
      "name": "withdrawFunds",
      "outputs": [],
      "stateMutability": "nonpayable",
      "type": "function"
    }
  ],
  "bytecode": "0x608060405260006001553480156200001657600080fd5b50604051620023953803806200239583398181016040528101906200003c91906200048b565b600073ffffffffffffffffffffffffffffffffffffffff168373ffffffffffffffffffffffffffffffffffffffff16036200007c576200007b620004e7565b5b816000806101000a81548173ffffffffffffffffffffffffffffffffffffffff021916908373ffffffffffffffffffffffffffffffffffffffff16021790555080600260006101000a81548173ffffffffffffffffffffffffffffffffffffffff021916908373ffffffffffffffffffffffffffffffffffffffff1602179055506200014d604051806060016040528060248152602001620023716024913960008054906101000a900473ffffffffffffffffffffffffffffffffffffffff16620002c860201b62000b0b1760201c565b60405180604001604052808473ffffffffffffffffffffffffffffffffffffffff1681526020018473ffffffffffffffffffffffffffffffffffffffff1663b6d200de7fa9214cc96615e0085d3bb077758db69497dc2dce3b2b1e97bc93c3d18d83efd36040518263ffffffff1660e01b8152600401620001cf919062000531565b602060405180830381865afa158015620001ed573d6000803e3d6000fd5b505050506040513d601f19601f8201168201806040525081019062000213919062000593565b73ffffffffffffffffffffffffffffffffffffffff16815250600360008201518160000160006101000a81548173ffffffffffffffffffffffffffffffffffffffff021916908373ffffffffffffffffffffffffffffffffffffffff16021790555060208201518160010160006101000a81548173ffffffffffffffffffffffffffffffffffffffff021916908373ffffffffffffffffffffffffffffffffffffffff160217905550905050505050620006ae565b6200036a8282604051602401620002e19291906200067a565b6040516020818303038152906040527f319af333000000000000000000000000000000000000000000000000000000007bffffffffffffffffffffffffffffffffffffffffffffffffffffffff19166020820180517bffffffffffffffffffffffffffffffffffffffffffffffffffffffff83818316178352505050506200036e60201b60201c565b5050565b60008151905060006a636f6e736f6c652e6c6f679050602083016000808483855afa5050505050565b600080fd5b600073ffffffffffffffffffffffffffffffffffffffff82169050919050565b6000620003c9826200039c565b9050919050565b6000620003dd82620003bc565b9050919050565b620003ef81620003d0565b8114620003fb57600080fd5b50565b6000815190506200040f81620003e4565b92915050565b6200042081620003bc565b81146200042c57600080fd5b50565b600081519050620004408162000415565b92915050565b60006200045382620003bc565b9050919050565b620004658162000446565b81146200047157600080fd5b50565b60008151905062000485816200045a565b92915050565b600080600060608486031215620004a757620004a662000397565b5b6000620004b786828701620003fe565b9350506020620004ca868287016200042f565b9250506040620004dd8682870162000474565b9150509250925092565b7f4e487b7100000000000000000000000000000000000000000000000000000000600052600160045260246000fd5b6000819050919050565b6200052b8162000516565b82525050565b600060208201905062000548600083018462000520565b92915050565b60006200055b82620003bc565b9050919050565b6200056d816200054e565b81146200057957600080fd5b50565b6000815190506200058d8162000562565b92915050565b600060208284031215620005ac57620005ab62000397565b5b6000620005bc848285016200057c565b91505092915050565b600081519050919050565b600082825260208201905092915050565b60005b8381101562000601578082015181840152602081019050620005e4565b8381111562000611576000848401525b50505050565b6000601f19601f8301169050919050565b60006200063582620005c5565b620006418185620005d0565b935062000653818560208601620005e1565b6200065e8162000617565b840191505092915050565b6200067481620003bc565b82525050565b6000604082019050818103600083015262000696818562000628565b9050620006a7602083018462000669565b9392505050565b611cb380620006be6000396000f3fe608060405234801561001057600080fd5b50600436106100f55760003560e01c8063ac71abde11610097578063d23b96a111610066578063d23b96a114610248578063d3112b2e14610266578063db93ea6914610285578063e89b0e1e146102b5576100f5565b8063ac71abde146101d8578063c1075329146101f4578063c2f7c65414610210578063c4740a951461022c576100f5565b806382dc5a1f116100d357806382dc5a1f146101505780638a8deed71461016c5780638da5cb5b1461018a578063959068ea146101a8576100f5565b80631c3a8892146100fa57806326ff92e4146101165780633be272aa14610132575b600080fd5b610114600480360381019061010f919061106b565b6102d1565b005b610130600480360381019061012b9190611108565b610300565b005b61013a61046e565b6040516101479190611157565b60405180910390f35b61016a60048036038101906101659190611239565b6104be565b005b6101746105ac565b6040516101819190611351565b60405180910390f35b6101926105d2565b60405161019f919061137b565b60405180910390f35b6101c260048036038101906101bd9190611396565b6105f6565b6040516101cf91906113de565b60405180910390f35b6101f260048036038101906101ed919061154d565b610616565b005b61020e60048036038101906102099190611108565b610739565b005b61022a60048036038101906102259190611596565b6108a5565b005b61024660048036038101906102419190611396565b6108c1565b005b6102506109aa565b60405161025d9190611157565b60405180910390f35b61026e6109b0565b60405161027c929190611618565b60405180910390f35b61029f600480360381019061029a919061106b565b610a02565b6040516102ac91906113de565b60405180910390f35b6102cf60048036038101906102ca9190611396565b610a22565b005b60006005600083815260200190815260200160002060006101000a81548160ff02191690831515021790555050565b60008054906101000a900473ffffffffffffffffffffffffffffffffffffffff1673ffffffffffffffffffffffffffffffffffffffff163373ffffffffffffffffffffffffffffffffffffffff1614806103aa575060011515600660003373ffffffffffffffffffffffffffffffffffffffff1673ffffffffffffffffffffffffffffffffffffffff16815260200190815260200160002060009054906101000a900460ff161515145b6103e9576040517f08c379a00000000000000000000000000000000000000000000000000000000081526004016103e09061169e565b60405180910390fd5b8173ffffffffffffffffffffffffffffffffffffffff166323b872dd3330846040518463ffffffff1660e01b8152600401610426939291906116be565b6020604051808303816000875af1158015610445573d6000803e3d6000fd5b505050506040513d601f19601f820116820180604052508101906104699190611721565b505050565b6000600160008154809291906104839061177d565b9190505550600160056000600154815260200190815260200160002060006101000a81548160ff021916908315150217905550600154905090565b600260009054906101000a900473ffffffffffffffffffffffffffffffffffffffff1673ffffffffffffffffffffffffffffffffffffffff16636673e84989898989896040518663ffffffff1660e01b81526004016105219594939291906117f4565b600060405180830381600087803b15801561053b57600080fd5b505af115801561054f573d6000803e3d6000fd5b50505050600115156005600085815260200190815260200160002060009054906101000a900460ff1615151461058457600080fd5b82851461059057600080fd5b6105a28282660db4da5f435944610ba7565b5050505050505050565b600260009054906101000a900473ffffffffffffffffffffffffffffffffffffffff1681565b60008054906101000a900473ffffffffffffffffffffffffffffffffffffffff1681565b60066020528060005260406000206000915054906101000a900460ff1681565b60008054906101000a900473ffffffffffffffffffffffffffffffffffffffff1673ffffffffffffffffffffffffffffffffffffffff163373ffffffffffffffffffffffffffffffffffffffff16146106a4576040517f08c379a000000000000000000000000000000000000000000000000000000000815260040161069b90611894565b60405180910390fd5b60005b8151811015610735576001600660008484815181106106c9576106c86118b4565b5b602002602001015173ffffffffffffffffffffffffffffffffffffffff1673ffffffffffffffffffffffffffffffffffffffff16815260200190815260200160002060006101000a81548160ff021916908315150217905550808061072d9061177d565b9150506106a7565b5050565b60008054906101000a900473ffffffffffffffffffffffffffffffffffffffff1673ffffffffffffffffffffffffffffffffffffffff163373ffffffffffffffffffffffffffffffffffffffff1614806107e3575060011515600660003373ffffffffffffffffffffffffffffffffffffffff1673ffffffffffffffffffffffffffffffffffffffff16815260200190815260200160002060009054906101000a900460ff161515145b610822576040517f08c379a00000000000000000000000000000000000000000000000000000000081526004016108199061169e565b60405180910390fd5b8173ffffffffffffffffffffffffffffffffffffffff1663a9059cbb33836040518363ffffffff1660e01b815260040161085d9291906118e3565b6020604051808303816000875af115801561087c573d6000803e3d6000fd5b505050506040513d601f19601f820116820180604052508101906108a09190611721565b505050565b6108bd3082846003610bc4909392919063ffffffff16565b5050565b60008054906101000a900473ffffffffffffffffffffffffffffffffffffffff1673ffffffffffffffffffffffffffffffffffffffff163373ffffffffffffffffffffffffffffffffffffffff161461094f576040517f08c379a000000000000000000000000000000000000000000000000000000000815260040161094690611958565b60405180910390fd5b6000600660008373ffffffffffffffffffffffffffffffffffffffff1673ffffffffffffffffffffffffffffffffffffffff16815260200190815260200160002060006101000a81548160ff02191690831515021790555050565b60015481565b60038060000160009054906101000a900473ffffffffffffffffffffffffffffffffffffffff16908060010160009054906101000a900473ffffffffffffffffffffffffffffffffffffffff16905082565b60056020528060005260406000206000915054906101000a900460ff1681565b60008054906101000a900473ffffffffffffffffffffffffffffffffffffffff1673ffffffffffffffffffffffffffffffffffffffff163373ffffffffffffffffffffffffffffffffffffffff1614610ab0576040517f08c379a0000000000000000000000000000000000000000000000000000000008152600401610aa790611894565b60405180910390fd5b6001600660008373ffffffffffffffffffffffffffffffffffffffff1673ffffffffffffffffffffffffffffffffffffffff16815260200190815260200160002060006101000a81548160ff02191690831515021790555050565b610ba38282604051602401610b219291906119ef565b6040516020818303038152906040527f319af333000000000000000000000000000000000000000000000000000000007bffffffffffffffffffffffffffffffffffffffffffffffffffffffff19166020820180517bffffffffffffffffffffffffffffffffffffffffffffffffffffffff8381831617835250505050610c24565b5050565b610bbf8284836003610c4d909392919063ffffffff16565b505050565b610c1e84848484600067ffffffffffffffff811115610be657610be561140f565b5b6040519080825280601f01601f191660200182016040528015610c185781602001600182028036833780820191505090505b50610cad565b50505050565b60008151905060006a636f6e736f6c652e6c6f679050602083016000808483855afa5050505050565b610ca784848484600067ffffffffffffffff811115610c6f57610c6e61140f565b5b6040519080825280601f01601f191660200182016040528015610ca15781602001600182028036833780820191505090505b50610e67565b50505050565b8460000160009054906101000a900473ffffffffffffffffffffffffffffffffffffffff1673ffffffffffffffffffffffffffffffffffffffff166339255d5b8660010160009054906101000a900473ffffffffffffffffffffffffffffffffffffffff168760010160009054906101000a900473ffffffffffffffffffffffffffffffffffffffff1673ffffffffffffffffffffffffffffffffffffffff1663b4b333c6868989600067ffffffffffffffff811115610d7057610d6f61140f565b5b6040519080825280601f01601f191660200182016040528015610da25781602001600182028036833780820191505090505b50604051602401610db69493929190611a95565b604051602081830303815290604052915060e01b6020820180517bffffffffffffffffffffffffffffffffffffffffffffffffffffffff8381831617835250505050846040518463ffffffff1660e01b8152600401610e1793929190611ae1565b6000604051808303816000875af1158015610e36573d6000803e3d6000fd5b505050506040513d6000823e3d601f19601f82011682018060405250810190610e5f9190611bcc565b505050505050565b8460000160009054906101000a900473ffffffffffffffffffffffffffffffffffffffff1673ffffffffffffffffffffffffffffffffffffffff166339255d5b8660010160009054906101000a900473ffffffffffffffffffffffffffffffffffffffff168760010160009054906101000a900473ffffffffffffffffffffffffffffffffffffffff1673ffffffffffffffffffffffffffffffffffffffff166362fc305e878988600067ffffffffffffffff811115610f2a57610f2961140f565b5b6040519080825280601f01601f191660200182016040528015610f5c5781602001600182028036833780820191505090505b50604051602401610f709493929190611c31565b604051602081830303815290604052915060e01b6020820180517bffffffffffffffffffffffffffffffffffffffffffffffffffffffff8381831617835250505050846040518463ffffffff1660e01b8152600401610fd193929190611ae1565b6000604051808303816000875af1158015610ff0573d6000803e3d6000fd5b505050506040513d6000823e3d601f19601f820116820180604052508101906110199190611bcc565b505050505050565b6000604051905090565b600080fd5b600080fd5b6000819050919050565b61104881611035565b811461105357600080fd5b50565b6000813590506110658161103f565b92915050565b6000602082840312156110815761108061102b565b5b600061108f84828501611056565b91505092915050565b600073ffffffffffffffffffffffffffffffffffffffff82169050919050565b60006110c382611098565b9050919050565b60006110d5826110b8565b9050919050565b6110e5816110ca565b81146110f057600080fd5b50565b600081359050611102816110dc565b92915050565b6000806040838503121561111f5761111e61102b565b5b600061112d858286016110f3565b925050602061113e85828601611056565b9150509250929050565b61115181611035565b82525050565b600060208201905061116c6000830184611148565b92915050565b6000819050919050565b61118581611172565b811461119057600080fd5b50565b6000813590506111a28161117c565b92915050565b600080fd5b6000819050826020600802820111156111c9576111c86111a8565b5b92915050565b60006111da826110b8565b9050919050565b6111ea816111cf565b81146111f557600080fd5b50565b600081359050611207816111e1565b92915050565b611216816110b8565b811461122157600080fd5b50565b6000813590506112338161120d565b92915050565b6000806000806000806000806101e0898b03121561125a5761125961102b565b5b60006112688b828c01611056565b98505060206112798b828c01611193565b975050604061128a8b828c01611056565b965050606061129b8b828c01611056565b95505060806112ac8b828c016111ad565b9450506101806112be8b828c01611056565b9350506101a06112d08b828c016111f8565b9250506101c06112e28b828c01611224565b9150509295985092959890939650565b6000819050919050565b600061131761131261130d84611098565b6112f2565b611098565b9050919050565b6000611329826112fc565b9050919050565b600061133b8261131e565b9050919050565b61134b81611330565b82525050565b60006020820190506113666000830184611342565b92915050565b611375816110b8565b82525050565b6000602082019050611390600083018461136c565b92915050565b6000602082840312156113ac576113ab61102b565b5b60006113ba84828501611224565b91505092915050565b60008115159050919050565b6113d8816113c3565b82525050565b60006020820190506113f360008301846113cf565b92915050565b600080fd5b6000601f19601f8301169050919050565b7f4e487b7100000000000000000000000000000000000000000000000000000000600052604160045260246000fd5b611447826113fe565b810181811067ffffffffffffffff821117156114665761146561140f565b5b80604052505050565b6000611479611021565b9050611485828261143e565b919050565b600067ffffffffffffffff8211156114a5576114a461140f565b5b602082029050602081019050919050565b60006114c96114c48461148a565b61146f565b905080838252602082019050602084028301858111156114ec576114eb6111a8565b5b835b8181101561151557806115018882611224565b8452602084019350506020810190506114ee565b5050509392505050565b600082601f830112611534576115336113f9565b5b81356115448482602086016114b6565b91505092915050565b6000602082840312156115635761156261102b565b5b600082013567ffffffffffffffff81111561158157611580611030565b5b61158d8482850161151f565b91505092915050565b600080604083850312156115ad576115ac61102b565b5b60006115bb858286016111f8565b92505060206115cc85828601611224565b9150509250929050565b60006115e18261131e565b9050919050565b6115f1816115d6565b82525050565b60006116028261131e565b9050919050565b611612816115f7565b82525050565b600060408201905061162d60008301856115e8565b61163a6020830184611609565b9392505050565b600082825260208201905092915050565b7f6d75737420626520617574686f72697a65640000000000000000000000000000600082015250565b6000611688601283611641565b915061169382611652565b602082019050919050565b600060208201905081810360008301526116b78161167b565b9050919050565b60006060820190506116d3600083018661136c565b6116e0602083018561136c565b6116ed6040830184611148565b949350505050565b6116fe816113c3565b811461170957600080fd5b50565b60008151905061171b816116f5565b92915050565b6000602082840312156117375761173661102b565b5b60006117458482850161170c565b91505092915050565b7f4e487b7100000000000000000000000000000000000000000000000000000000600052601160045260246000fd5b600061178882611035565b91507fffffffffffffffffffffffffffffffffffffffffffffffffffffffffffffffff82036117ba576117b961174e565b5b600182019050919050565b6117ce81611172565b82525050565b82818337600083830152505050565b6117f061010083836117d4565b5050565b60006101808201905061180a6000830188611148565b61181760208301876117c5565b6118246040830186611148565b6118316060830185611148565b61183e60808301846117e3565b9695505050505050565b7f6f6e6c79206f776e65722063616e20616464206163636f756e74730000000000600082015250565b600061187e601b83611641565b915061188982611848565b602082019050919050565b600060208201905081810360008301526118ad81611871565b9050919050565b7f4e487b7100000000000000000000000000000000000000000000000000000000600052603260045260246000fd5b60006040820190506118f8600083018561136c565b6119056020830184611148565b9392505050565b7f6f6e6c79206f776e65722063616e2072656d6f7665206163636f756e74730000600082015250565b6000611942601e83611641565b915061194d8261190c565b602082019050919050565b6000602082019050818103600083015261197181611935565b9050919050565b600081519050919050565b60005b838110156119a1578082015181840152602081019050611986565b838111156119b0576000848401525b50505050565b60006119c182611978565b6119cb8185611641565b93506119db818560208601611983565b6119e4816113fe565b840191505092915050565b60006040820190508181036000830152611a0981856119b6565b9050611a18602083018461136c565b9392505050565b6000611a2a8261131e565b9050919050565b611a3a81611a1f565b82525050565b600081519050919050565b600082825260208201905092915050565b6000611a6782611a40565b611a718185611a4b565b9350611a81818560208601611983565b611a8a816113fe565b840191505092915050565b6000608082019050611aaa6000830187611a31565b611ab7602083018661136c565b611ac4604083018561136c565b8181036060830152611ad68184611a5c565b905095945050505050565b6000606082019050611af66000830186611609565b8181036020830152611b088185611a5c565b90508181036040830152611b1c8184611a5c565b9050949350505050565b600080fd5b600067ffffffffffffffff821115611b4657611b4561140f565b5b611b4f826113fe565b9050602081019050919050565b6000611b6f611b6a84611b2b565b61146f565b905082815260208101848484011115611b8b57611b8a611b26565b5b611b96848285611983565b509392505050565b600082601f830112611bb357611bb26113f9565b5b8151611bc3848260208601611b5c565b91505092915050565b600060208284031215611be257611be161102b565b5b600082015167ffffffffffffffff811115611c0057611bff611030565b5b611c0c84828501611b9e565b91505092915050565b600081600b0b9050919050565b611c2b81611c15565b82525050565b6000608082019050611c466000830187611a31565b611c53602083018661136c565b611c606040830185611c22565b8181036060830152611c728184611a5c565b90509594505050505056fea2646970667358221220f7f3997a2e28579f79dc1d420719031b9b47cfce8daa4bd5a9675a4257c5896364736f6c634300080d00334465706c6f79696e672061204d6f6e657920526f757465722077697468206f776e65723a",
  "linkReferences": {},
  "deployedLinkReferences": {}
}